:020000040800F2
:10000000E0040020D50000088913000895120008BC
:1000100000000000000000000000000000000000E0
:10002000000000000000000000000000D3130008E2
:100030000000000000000000D1130008D5130008E4
:10004000E7000008E7000008E7000008E7000008F4
:10005000E7000008E7000008E7000008E7000008E4
:10006000E7000008E7000008E7000008E7000008D4
:10007000E7000008E7000008E7000008E7000008C4
:10008000E7000008E7000008E7000008E7000008B4
:10009000E7000008E7000008E7000008E7000008A4
:1000A000E7000008E7000008E7000008BD180008A6
:1000B000E7000008E7000008E7000008E700000884
:1000C0000348854600F03CF800480047791A0008CC
:1000D000E00400200448804704480047FEE7FEE7AC
:1000E000FEE7FEE7FEE7FEE735140008C100000862
:1000F00030B50B46014600202022012409E00D46C0
:10010000D5409D4205D31D469540491B2546954047
:1001100040191546521E002DF1DC30BDD2B201E06F
:100120000270401C491EFBD270470022F6E710B552
:1001300013460A4604461946FFF7F0FF204610BD55
:10014000064C0125064E05E0E36807CC2B430C3C2A
:1001500098471034B442F7D3FFF7B6FFF81B0008F6
:10016000181C0008F8B5044600200090206881683B
:100170008907890F012905D10168C9072CD1C168F8
:10018000090429D48168154A102611400125002947
:1001900015D1816829438160124811490068FFF731
:1001A000A7FF00E0401E00900028FBD100F016FBE6
:1001B00007460CE000F012FBC01B022807D9606C58
:1001C00030436064A06C2843A0640120F8BD20681F
:1001D0000068C043C007EDD10020F8BD17000080C3
:1001E00040420F001C00002070470000F8B50025B9
:1001F0000446403400952278012A3BD00122227027
:1002000003689E68760776D43F4F4E68BE4254D04E
:100210009E6A0F78BA4016439E620123826B1B07C9
:100220009A421FD0012A1DD0022A1BD0032A19D0BE
:10023000042A17D0052A15D0062A13D0072A11D070
:1002400002688B6856697607760FB3420AD0536905
:10025000DB08DB005361006842690B7A5B075B0FC8
:100260001A4342610868102806D0112804D01228C9
:1002700002D045E00220F8BD244A9368102809D036
:1002800011280AD001200006034393600868102853
:1002900006D035E00120C005F6E701208005F3E730
:1002A0001C481B490068FFF723FF0A21484300E070
:1002B000401E00900028FBD122E0986A0E78B240E0
:1002C000904398620868102803D0112801D01228A2
:1002D00016D10E498A68102807D0112808D00120AD
:1002E000000682438A600BE005E00120C005F8E7C4
:1002F00001208005F5E7416C20221143416401256E
:10030000002020702846F8BD0110000000270140A1
:1003100040420F001C000020406C70470068006CD9
:1003200070470000F8B500250446002803D0606C33
:10033000002802D008E00120F8BD0020A064402180
:100340000855204600F0A8F8606C1022104270D1C9
:100350002068816849076CD4616C130199430223BA
:100360001943616481688907890F012905D10168F2
:10037000C9070FD1C16809040CD4C1681826B1435C
:10038000A6683143C16020680169666889008908F0
:10039000314301612068C1683D4E3140C160A069B0
:1003A000E1698003C9030843216A4E033043666B49
:1003B000012E02D00126360300E000263043E66815
:1003C00030432669022E08D000263043266B760083
:1003D0003043666A012E02D00BE00426F5E70029BF
:1003E00028D0616C202631436164A16C0126314321
:1003F000A164A16A0E46FF3EC23E02D0E66A3143C6
:1004000008432168CE680643CE600126A16B3607FB
:10041000B14213D0012911D002290FD003290DD0E8
:1004200004290BD0052909D0062907D0072905D0B2
:1004300010E028E0012109040843DAE721684E6949
:10044000F608F6004E6121684E69278F7F077F0FFF
:100450003E434E612168C9680E4E3140814207D14A
:100460000020A064606C80088000401C606408E08C
:10047000606C984310436064A06C01210843A06441
:1004800001252846F8BD606C10436064F8E7000061
:100490001902FEFFE7FF3F8310B586B00446142122
:1004A0006846FFF742FE10492068884219D10F487C
:1004B000826941150A43826182690A400592426954
:1004C00009020A43426140690840059002200090F9
:1004D000032001900020029009206946C00600F028
:1004E000C7F806B010BD0000002401400010024013
:1004F000F8B504464069254640350E4608280BD01D
:100500002068C068C00709D0606C2021084360647F
:10051000002028700120F8BD082700E00C2700F01B
:100520005DF9009011E0701C0FD0002E05D000F096
:1005300055F90099401AB04207D9606C042108436C
:100540006064002028700320F8BD206800683842ED
:10055000E9D0606C01214902084360642068C168E9
:1005600009058A0F0C21002A1AD1226A002A17D104
:100570000268120714D5826853070122002B08DB9A
:1005800043688B434360606C13029843104360647C
:1005900006E0606C202318436064A06C1043A064E4
:1005A000A069002801D1206801600020F8BD00008A
:1005B00070B50446216800208968490721D4254682
:1005C0004035297801291CD001212970E1690129D0
:1005D00004D02046FFF7C6FD002811D1616C0A4AFD
:1005E0001140FF220132114361640021A16429708E
:1005F00022681C21116021688A6804231A438A60DA
:1006000070BD022070BD0000FEF1FFFF70B5002438
:10061000014620314A78022A03D004218163012453
:1006200016E0026813680E25AB4313600268136876
:100630005B085B0013600122056C1346AB40C56B81
:100640006B604A7000220A70416B002900D0884715
:10065000204670BD31B500F0C1F8009C0546601C15
:1006600000D0641C00F0BAF8401BA042FAD338BD99
:10067000F8B5002393E0224601249C40A446224082
:100680007ED04C68022C01D0122C0CD1DC08A400C6
:1006900027183C6A5D07ED0E0F26AE40B4430E6985
:1006A000AE4026433E6205685E000324B4400F79E5
:1006B000A543BF07BF0FB7402F4307604D68012D0B
:1006C00005D0022D03D0112D01D0122D0ED1856839
:1006D000CF68A543B7402F43876047686546AF435F
:1006E0000D79ED06ED0F9D403D434560C568A5437E
:1006F0008C68B4402C43C4604C68E4004ED52B4C4D
:10070000A56901263543A561A4699D08344000947C
:10071000274CAD002F19BC689D072E0F0F25B54043
:10072000AC430925ED06A84201D1002514E0214D76
:10073000A84201D101250FE01F4DA84201D1022599
:100740000AE01E4DA84201D1032505E01C4DA84238
:1007500001D1042500E00525B5402543BD60194CB5
:1007600025684E689543F60300D5154325606568F6
:100770004E689543B60300D515436560A56800E053
:100780000CE04E689543F60200D51543A560E56878
:100790004E689543B60200D51543E5605B1C0A68B8
:1007A0001446DA4000D066E7F8BD000000100240B1
:1007B000000001400004004800080048000C004808
:1007C000001000480004014042694A4042617047FD
:1007D000002A01D08161704781627047014800683A
:1007E000704700001800002002480168491C0160A1
:1007F000704700001800002010B50648016810225C
:1008000011430160002000F007F800F017F8002005
:1008100010BD00000020024010B5044600F06AF947
:100820007D21C900FFF764FC00F0AAFB00222146ED
:10083000501E00F021F8002010BD000008B5084847
:100840008169012211438161816911400091C2696E
:1008500001040A43C261C0690840009008BD00005D
:1008600000100240C106C90E0120884001490860FD
:100870007047000000E100E010B500F087FD10BDFA
:10088000F8B504460068434DC00352D5E869002618
:10089000C00007D4E96928040143E961E96901401E
:1008A000012600913C480168C90510D401688215F1
:1008B00011430160FFF792FF074604E0FFF78EFF48
:1008C000C01B642824D834480068C005F6D5286ABF
:1008D00003273F02384020D06168394081421CD054
:1008E000286A2A6AB843012109040A432A622A6A4B
:1008F0008A432A622862C0070FD0FFF76FFF00907B
:1009000008E0FFF76BFF0099411A2448814201D9A2
:100910000320F8BD286A8007F3D5286A6168B843C8
:1009200008432862002E04D0E869012109078843A2
:10093000E8612078C00705D0286BA1688008800096
:10094000084328632078800706D5286B0321090413
:100950008843E168084328632078800605D5286B22
:10096000102188432169084328632068800305D546
:10097000286B80218843A1690843286320884005AB
:1009800005D5286B4021884361690843286300200E
:10099000F8BD000000100240007000408813000005
:1009A000F8B505464E480E460068C007C00FB04275
:1009B0000AD24B4801684908490031430160006888
:1009C000C007C00FB04270D12878464C800705D5CB
:1009D0006068F0218843A968084360602878C007F0
:1009E00053D06868012817D0022818D0032819D0DE
:1009F00021688907002958DA61688908890001435C
:100A00006160FFF7EBFE69680746012913D00229F0
:100A10001DD0032927D034E021688903EAE7216843
:100A20008901E7E7616BC903E4E7FFF7D7FEC11B64
:100A30002D48814223D860680007800F0128F4D137
:100A400023E0FFF7CBFEC11B2748814217D860681F
:100A50000007800F0228F4D117E0FFF7BFFEC11B8B
:100A6000214881420BD860680007800F0328F4D129
:100A70000BE0FFF7B3FEC11B1B48814201D90320E5
:100A8000F8BD60680007800FF3D115480168C907F9
:100A9000C90FB1420BD901684908490031430160CF
:100AA0000068C007C00FB04201D00120F8BD28780F
:100AB000400706D56068072109028843E9680843B2
:100AC000606000F02DF86168084A0906090F515C62
:100AD000C840074908600020FFF79EFE0020F8BDCF
:100AE000002002400010024088130000E01B0008B4
:100AF0001C00002001480068704700001C00002016
:100B00000448054900684968044A4905490F515C91
:100B1000C84070471C00002000100240F01B000875
:100B200030B516A30FCB89B06C460FC417A30FCBFB
:100B30000FC41A494A680C20144604401848042C73
:100B400005D0184B082C04D00C2C00D1184609B045
:100B500030BD9402240F6D462C5DC96A04AD0907AF
:100B6000090FD203695C920F022A02D0032A00D136
:100B70001846FFF7BDFA6043E9E7000002030405E9
:100B8000060708090A0B0C0D0E0F101001020304D2
:100B900005060708090A0B0C0D0E0F100010024085
:100BA00000127A00006CDC02FEB504460078F04EBC
:100BB000F04DC00748D068680007800F01281FD09B
:100BC00068680007800F022804D16868C003800F9E
:100BD000022815D06168012919D00120800400295C
:100BE00001D0052917D02968B143296029688143BC
:100BF0002960606800281BD0FFF7F0FD074613E06E
:100C00002868800320D56068002876D01CE028681A
:100C100030432860EDE7296801432960F7E7FFF7D3
:100C2000DDFDC01B642869D828688003F7D50BE078
:100C3000FFF7D4FD074604E0FFF7D0FDC01B642892
:100C4000F1D828688003F7D4207880073ED56868FB
:100C50000007800F14D068680007800F022804D1B5
:100C60006868C003800F01280AD0E068002828685F
:100C70001DD0012108432860FFF7B0FD07460BE0B7
:100C8000286880070BD5E068012836D107E0FFF718
:100C9000A5FDC01B0228C6D828688007F7D528689C
:100CA000F82188432169C900084328600EE0400804
:100CB00040002860FFF792FD074604E0FFF78EFD35
:100CC000C01B0228AFD828688007F7D42078000717
:100CD00024D5E0690028686A11D0012108436862C0
:100CE000FFF77CFD074604E0FFF778FDC01B0228F4
:100CF00099D8686A8007F7D510E036E1D1E040085E
:100D000040006862FFF76AFD074604E0FFF766FDF2
:100D1000C01B022887D8686A8007F7D42078042788
:100D20004007002861DA00200190E869C00008D47B
:100D3000E969B8060143E961E969014001200091D0
:100D400001908D480168C90511D4016882151143CD
:100D50000160FFF743FD009005E0FFF73FFD0099BC
:100D6000401A642897D884480068C005F5D5A06863
:100D700001280AD0002801D0052811D0286A40088F
:100D800040002862286AB84302E0286A012108432B
:100D90002862A068002812D0FFF720FD00900AE02A
:100DA000286A38432862F0E7FFF718FD0099411AD6
:100DB0007248814275D8286A8007F5D50DE0FFF7A3
:100DC0000DFD009006E0FFF709FD0099411A6B4800
:100DD000814266D8286A8007F5D40198002804D09B
:100DE000E969012000078143E9612078C00635D513
:100DF000606901280CD0401D686B24D038436863BB
:100E0000686B400840006863FFF7E8FC074622E093
:100E1000686B38436863686B012108436863FFF7B8
:100E2000DDFC074604E0FFF7D9FCC01B022838D8D8
:100E3000686B8007F7D5686BF8218843A169C90002
:100E4000084368630AE0B8436863F4E7FFF7C6FC49
:100E5000C01B022825D8686B8007F7D4207880064D
:100E600037D568680007800F032813D0686800072B
:100E7000800F022804D16868C003800F032809D0BE
:100E8000206A0028686B16D030436863FFF7A6FC21
:100E900006460CE0686BC0031BD5206A012864D1AC
:100EA00017E05BE0FFF79AFC801B022856D8686BBE
:100EB000C003F7D50DE0B0436863FFF78FFC06462B
:100EC00004E0FFF78BFC801B022847D8686BC00347
:100ED000F7D4606A002846D069680907890F02299B
:100EE00043D0012636060228286805D0B043286082
:100EF000FFF774FC044633E0B0432860FFF76EFC54
:100F0000074604E0FFF76AFCC01B022826D82868C1
:100F10008001F7D4E86A216B000900010843E86208
:100F2000A16AE06A084369687B22D20391430843BF
:100F30006860286830432860FFF750FC044604E0EE
:100F4000FFF74CFC001B022808D828688001F7D561
:100F500009E0FFF743FC001B022801D90320FEBD76
:100F600028688001F5D40020FEBD0120FEBD0000F0
:100F700000000100001002400070004088130000D3
:100F8000094910B5401E884201D9012010BD074C07
:100F900060610321081F00F0F9F90020A06107201B
:100FA0002061002010BD0000FFFFFF0000E000E016
:100FB00070477047F8B503680446D8691968050793
:100FC0002D0F07D1820605D58A0603D5204600F0ED
:100FD00025FBF8BD9A68002D64D0D507ED0FFF26DC
:100FE00021360E402E435DD0C60706D0CE0504D56F
:100FF00001261E62E36E3343E3668707022304265D
:10100000002F06DAD70704D027683B62E76E374324
:10101000E766470706D5D20704D022681662E26E5B
:101020001A43E266020709D520220A402A4305D066
:10103000236808221A62E36E1343E366E26E002A15
:10104000C7D0800604D5880602D5204600F0E6FA0F
:10105000E06E000703D42068806840061CD5204657
:1010600000F0C0FA20688168490611D581684022E5
:1010700091438160606E00280AD01A494163606E16
:10108000FFF7C4FA0028A4D0606E416B8847F8BD12
:101090002046FFF78EFFF8BD2046FFF78AFF0020AD
:1010A000E066F8BDC5020DD552020BD50120000542
:1010B0001862202120466030417281722046FFF77D
:1010C00077FFF8BD020605D50A0603D5204600F0D5
:1010D00091FBF8BD4006FCD54806FAD5204600F045
:1010E00090FAF8BDD115000870B5040005D025466A
:1010F0006035687A002802D006E0012070BD00202B
:101100002872204600F026F82420687220680168C2
:10111000490849000160204600F0BEFA0128EDD0E0
:10112000606A002802D0204600F0B2F920684168C9
:101130000922D20291434160206881682A229143AA
:10114000816020680168012211430160204600F09F
:1011500005FA70BD10B586B0044614216846FEF746
:10116000E4FF17492068884227D116488269012187
:1011700089030A43826182690A4005924269C90073
:101180000A434261406908400590032040020090F4
:10119000022001900020029003200390012004907F
:1011A00009206946C006FFF763FA002211461B209A
:1011B000FFF762FB1B20FFF755FB06B010BD0000D8
:1011C00000380140001002407047FFB50646044653
:1011D0006036707A83B00D46202858D1002D0CD08F
:1011E0000598002809D00120A1680003814207D199
:1011F0002069002804D1E80702D0012007B0F0BD23
:10120000307A012843D0012030720020E06621208E
:101210007072FFF7E3FA019027464037059838824D
:101220000598788218E0788A401E788206980090A7
:10123000002280212046019B00F00FFB002818D1DE
:101240000120A1680003814202D12069002812D048
:101250002168287808856D1C788A0028E3D10698D3
:101260000090002240212046019B00F0F6FA002861
:1012700008D00320C2E728882168C005C00D088572
:10128000AD1CE9E72020707200203072B6E7022022
:10129000B4E77047FEE700003EB500211648009114
:1012A00001910291416081600124124A046102604F
:1012B000C1608161C1610422016242614162FF2219
:1012C000C162C232446382620163FFF72BF80028D7
:1012D00001D0FEF789FF0120000301900720029052
:1012E000009469460448FEF781FF002801D0FEF70C
:1012F0007BFF3EBD002401402400002030B587B0B4
:1013000014216846FEF711FF0E4842690121490485
:101310000A4342614069092508408C11ED06059099
:10132000002221462846FFF753FA002101200291AE
:1013300003910190009469462846FFF799F907B098
:1013400030BD00000010024010B50E480C4901608D
:10135000E1214902416000218160C1600161816138
:101360000C22C161426101620821416209034163AB
:10137000FFF7BAFE002801D0FEF736FF10BD0000CF
:101380000038014070000020704700008307FF22F2
:10139000DB0E9A408907090E994000280BDA0007F6
:1013A000000F0838830808489B001818C369934346
:1013B0000B43C3617047830804489B001B181868DF
:1013C000904308431860704700ED00E000E400E03F
:1013D0007047704710B5FFF707FA10BD30B599B0E8
:1013E00034216846FEF7A1FE00240D940E940F945C
:1013F0001C2111A81094FEF798FE012512200595D6
:101400000090102004900690039509946846FFF719
:10141000CBFB07200D900E940F94002110940DA883
:10142000FFF7BEFA11A811951394FFF729FA19B026
:1014300030BD00001248016801221143016041687B
:10144000104A1140416001680F4A11400160016873
:10145000012292049143016041683F2212049143AA
:101460004160C16A09090901C162016B074A114063
:101470000163416B49084900416300218160704765
:10148000001002400CB8FF08FFFFF6FE2CFEFCFF28
:1014900010B5818CC90707D001684A6801235B0435
:1014A0009A43836A1A434A60818C890707D5016889
:1014B0004A6801231B049A43C36A1A434A60818C19
:1014C000490707D501684A6801239B049A43036BC7
:1014D0001A434A60818C090707D501684A680123CD
:1014E000DB039A43436B1A434A60818CC90607D5D4
:1014F0000268916801231B039943836B1943916030
:10150000818C890607D501688A6801235B039A43A9
:10151000C36B1A438A60818C490612D503685A68E6
:1015200001210905046C8A4322435A60026C8A42F5
:1015300007D10268516803235B059943436C194343
:101540005160818C090607D501684A680123DB04D4
:10155000806C9A4302434A6010BD0000F8B5002633
:101560000446C666FFF73AF90546164920688842E0
:1015700002D0154988421DD10068144F000709D5D3
:1015800001212B46002249052046009700F065F90D
:1015900000280DD12068006840070BD501212B469B
:1015A000002289052046009700F057F9002801D055
:1015B0000320F8BD202060346072A07226720020E3
:1015C000F8BD00000038014000440040FFFFFF016B
:1015D00010B5406A0022014640314A834A82FFF733
:1015E000E8FC10BD01680A68FF2321339A430A60B2
:1015F00001688A68520852008A6020216030817236
:10160000704710B501680A6840239A430A60202297
:1016100069210A54FFF73DFE002010BD70B5024657
:10162000403203466033948B9D7A0168222D05D0A9
:101630008869082210438861022070BD898C0126C8
:1016400085683603B54202D10569002D0BD02140D3
:10165000446D651C45652170518B491E0904090CB8
:10166000518307D015E0456D21402980416D891CCB
:101670004165F1E701680A68FF242134A2430A604A
:1016800001688A68520852008A6020219972FFF727
:101690009BFD002070BD0000F8B504462369A268D8
:1016A000E5691A43636910202B43002125681A431A
:1016B0002B680E46474F3B4013432B6023685A6804
:1016C00003252D03AA43E5682A435A60236AA269C9
:1016D00025681A43AB680B273F02BB431343AB603B
:1016E0003D4F25683D4B0203BD420AD11B6B9B0752
:1016F0009B0F20D0012B14D0022B14D0032B1BD115
:101700000DE0374FBD4210D11B6B03273F043B4018
:1017100011D09B1A05D09B1A05D093420CD1022000
:101720000AE0042008E0082006E02E4B9D4202D08B
:101730002D4B9D4200D100200123E769DB039F422E
:1017400022D100280CD002280DD0042813D008285C
:1017500017D001260A0912010807400F10432EE096
:10176000FFF7CEF909E06168204A48088018FEF7C3
:10177000BFFC81B2EEE7FFF7D3F9616840004A0889
:10178000F4E761684808F1E7002808D0022809D08A
:1017900004280CD0082815D001263046F8BDFFF7E4
:1017A000AFF906E06168124A480880180DE0FFF7BB
:1017B000B7F961684A088018FEF79AFC80B2216880
:1017C000C860EAE761684808C018FEF791FC80B27B
:1017D000E860E2E7F369FFEF0038014000100240E3
:1017E0000044004000480040004C00400024F40049
:1017F00000127A006921095C212901D0022070477A
:1018000002464032518A002912D0012381681B030D
:10181000994202D10169002915D0C16C4B1CC364E7
:10182000006809780185508A401E50820020704768
:1018300001680A6880239A430A60006801684022B0
:1018400011430160F2E7C16C03680988C905C90D3D
:101850001985C16C891CC164E5E7FFB581B01746E5
:101860000E4604460A9D1DE0681C1BD0002D05D0C5
:10187000FEF7B4FF0499401AA84213D92068016802
:10188000FF22A13291430160206881684908490024
:101890008160202060346072A072002020720320DA
:1018A00005B0F0BD2068C1693046884304D00020EF
:1018B000B842D9D00020F3E70120F9E710B502487B
:1018C000FFF778FB10BD0000700000200FB410B5CA
:1018D00003A9044B044A029800F018F810BC08BC95
:1018E00004B018475D1A00082000002002E008C874
:1018F000121F08C1002AFAD170477047002001E08A
:1019000001C1121F002AFBD170470000FFB58DB046
:101910000446002506E025280AD0109A0F99904722
:10192000641C6D1C20780028F5D1284611B0F0BD4C
:1019300000270121484A009700E00743641C2378F0
:101940000846203B98401042F7D120782E2817D126
:10195000042007436078641C2A280CD10E98641C6C
:1019600002C800910E900BE000990A2251433039D1
:101970004018641C00902078014630390929F3D9B9
:1019800020780028D1D0642808D0692806D075288E
:101990001ED0109A0F9990476D1C5BE00A200E999B
:1019A000019001C90E91002802DA40422D2102E087
:1019B000390504D52B216A461172012103E0F9078C
:1019C00004D02021F7E70BAE0B910DE00021FAE7E0
:1019D0000A200E99019001C90E91F7E70199FEF7CF
:1019E00087FB3031761E31700028F7D103A8801BA9
:1019F00020300190780701D5009801E00120009087
:101A00000199884201DD401A00E000200027009083
:101A100006E002A8109AC05D0F9990476D1C7F1CCC
:101A20000B988742F5DB04E0109A30200F9990471D
:101A30006D1C0099481E00900029F5DC05E0307807
:101A4000109A761C0F9990476D1C0199481E0190C1
:101A50000029F4DC641C65E70928010013B5044B78
:101A6000012269460348FFF7B0FB00981CBD000047
:101A7000FFFF000070000020FEF7BEFEFFF7AEFC87
:101A80006420FEF7E7FDFFF739FCFFF705FCFFF7E1
:101A90005BFC0026344635464748FEF789FD322177
:101AA0004548FEF725FD4448FEF736FC800505D580
:101AB0004148FEF733FC8619641CA4B20A20FEF7E5
:101AC000C9FD6D1CADB20A2DE6D321463046FEF7A6
:101AD0000FFB3A4C80B23A4960804843C117090D68
:101AE000081800137D252D0120613649401B48430D
:101AF0003549FEF7FDFA6910081AE060884202DAFB
:101B00004910C84208DCBFF34F8F31492F48C860E5
:101B1000BFF34F8F00BFFDE700273E463C462648F7
:101B2000FEF746FD32212448FEF7E2FC2248FEF78C
:101B3000F3FB800505D52048FEF7F0FBC719761C9E
:101B4000B6B2641CA4B2052CE9D331463846FEF780
:101B5000CFFA1A4C80B21A4920804843C117090DA8
:101B6000081800136060A84201D2656003E01949BB
:101B7000884200D9616060681249401B484312499D
:101B8000FEF7B6FAE16840180A21A060FEF7B0FA45
:101B90000A46014610A0FFF799FE6069401C60618B
:101BA000FA28B9D30020606101210920C902C006CA
:101BB000FEF70AFEB0E7000024000020000000202D
:101BC000E880000088130000A86100000400FA0506
:101BD00000ED00E07869000025642E25640A00000D
:101BE00000000000000000000102030406070809CD
:101BF0000000000001020304181C0008000000207F
:101C000024000000EC1800083C1C00082400002000
:101C1000BC040000FC1800080000000000000000E8
:101C200000000000000000000000000000000000B4
:0C1C30000000000000127A00000000001C
:04000005080000C12E
:00000001FF
